{
  "contractName": "ElecSaleSmartContract",
  "abi": [
    {
      "constant": true,
      "inputs": [],
      "name": "list",
      "outputs": [
        {
          "name": "",
          "type": "address"
        }
      ],
      "payable": false,
      "stateMutability": "view",
      "type": "function"
    },
    {
      "constant": true,
      "inputs": [],
      "name": "saleStartTime",
      "outputs": [
        {
          "name": "",
          "type": "uint256"
        }
      ],
      "payable": false,
      "stateMutability": "view",
      "type": "function"
    },
    {
      "constant": true,
      "inputs": [
        {
          "name": "contributor",
          "type": "address"
        },
        {
          "name": "amountInWei",
          "type": "uint256"
        }
      ],
      "name": "eligible",
      "outputs": [
        {
          "name": "",
          "type": "uint256"
        }
      ],
      "payable": false,
      "stateMutability": "view",
      "type": "function"
    },
    {
      "constant": true,
      "inputs": [
        {
          "name": "contributor",
          "type": "address"
        }
      ],
      "name": "contributorCap",
      "outputs": [
        {
          "name": "",
          "type": "uint256"
        }
      ],
      "payable": false,
      "stateMutability": "view",
      "type": "function"
    },
    {
      "constant": true,
      "inputs": [],
      "name": "multiSigWallet",
      "outputs": [
        {
          "name": "",
          "type": "address"
        }
      ],
      "payable": false,
      "stateMutability": "view",
      "type": "function"
    },
    {
      "constant": false,
      "inputs": [],
      "name": "finalizeSale",
      "outputs": [],
      "payable": false,
      "stateMutability": "nonpayable",
      "type": "function"
    },
    {
      "constant": true,
      "inputs": [],
      "name": "saleStarted",
      "outputs": [
        {
          "name": "",
          "type": "bool"
        }
      ],
      "payable": false,
      "stateMutability": "view",
      "type": "function"
    },
    {
      "constant": true,
      "inputs": [],
      "name": "haltSale",
      "outputs": [
        {
          "name": "",
          "type": "bool"
        }
      ],
      "payable": false,
      "stateMutability": "view",
      "type": "function"
    },
    {
      "constant": false,
      "inputs": [
        {
          "name": "halt",
          "type": "bool"
        }
      ],
      "name": "setHaltSale",
      "outputs": [],
      "payable": false,
      "stateMutability": "nonpayable",
      "type": "function"
    },
    {
      "constant": false,
      "inputs": [
        {
          "name": "anyToken",
          "type": "address"
        }
      ],
      "name": "emergencyDrain",
      "outputs": [
        {
          "name": "",
          "type": "bool"
        }
      ],
      "payable": false,
      "stateMutability": "nonpayable",
      "type": "function"
    },
    {
      "constant": true,
      "inputs": [],
      "name": "xtime",
      "outputs": [
        {
          "name": "",
          "type": "uint256"
        }
      ],
      "payable": false,
      "stateMutability": "view",
      "type": "function"
    },
    {
      "constant": true,
      "inputs": [],
      "name": "firstRoundTime",
      "outputs": [
        {
          "name": "",
          "type": "uint256"
        }
      ],
      "payable": false,
      "stateMutability": "view",
      "type": "function"
    },
    {
      "constant": true,
      "inputs": [],
      "name": "saleEnded",
      "outputs": [
        {
          "name": "",
          "type": "bool"
        }
      ],
      "payable": false,
      "stateMutability": "view",
      "type": "function"
    },
    {
      "constant": false,
      "inputs": [
        {
          "name": "proxy",
          "type": "bytes32"
        },
        {
          "name": "recipient",
          "type": "address"
        }
      ],
      "name": "proxyBuy",
      "outputs": [
        {
          "name": "",
          "type": "uint256"
        }
      ],
      "payable": true,
      "stateMutability": "payable",
      "type": "function"
    },
    {
      "constant": false,
      "inputs": [],
      "name": "debugBuy",
      "outputs": [],
      "payable": true,
      "stateMutability": "payable",
      "type": "function"
    },
    {
      "constant": true,
      "inputs": [
        {
          "name": "",
          "type": "address"
        }
      ],
      "name": "participated",
      "outputs": [
        {
          "name": "",
          "type": "uint256"
        }
      ],
      "payable": false,
      "stateMutability": "view",
      "type": "function"
    },
    {
      "constant": true,
      "inputs": [],
      "name": "raisedWei",
      "outputs": [
        {
          "name": "",
          "type": "uint256"
        }
      ],
      "payable": false,
      "stateMutability": "view",
      "type": "function"
    },
    {
      "constant": true,
      "inputs": [
        {
          "name": "_contributor",
          "type": "address"
        }
      ],
      "name": "contributedCap",
      "outputs": [
        {
          "name": "",
          "type": "uint256"
        }
      ],
      "payable": false,
      "stateMutability": "view",
      "type": "function"
    },
    {
      "constant": true,
      "inputs": [
        {
          "name": "",
          "type": "bytes32"
        }
      ],
      "name": "proxyPurchases",
      "outputs": [
        {
          "name": "",
          "type": "uint256"
        }
      ],
      "payable": false,
      "stateMutability": "view",
      "type": "function"
    },
    {
      "constant": true,
      "inputs": [],
      "name": "saleEndTime",
      "outputs": [
        {
          "name": "",
          "type": "uint256"
        }
      ],
      "payable": false,
      "stateMutability": "view",
      "type": "function"
    },
    {
      "constant": false,
      "inputs": [
        {
          "name": "recipient",
          "type": "address"
        }
      ],
      "name": "buy",
      "outputs": [
        {
          "name": "",
          "type": "uint256"
        }
      ],
      "payable": true,
      "stateMutability": "payable",
      "type": "function"
    },
    {
      "constant": true,
      "inputs": [],
      "name": "admin",
      "outputs": [
        {
          "name": "",
          "type": "address"
        }
      ],
      "payable": false,
      "stateMutability": "view",
      "type": "function"
    },
    {
      "constant": true,
      "inputs": [],
      "name": "token",
      "outputs": [
        {
          "name": "",
          "type": "address"
        }
      ],
      "payable": false,
      "stateMutability": "view",
      "type": "function"
    },
    {
      "inputs": [
        {
          "name": "_admin",
          "type": "address"
        },
        {
          "name": "_multiSigWallet",
          "type": "address"
        },
        {
          "name": "_whiteListContract",
          "type": "address"
        },
        {
          "name": "_totalTokenSupply",
          "type": "uint256"
        },
        {
          "name": "_companyTokenSupply",
          "type": "uint256"
        },
        {
          "name": "saleStartTime",
          "type": "uint256"
        },
        {
          "name": "_firstRoundTime",
          "type": "uint256"
        },
        {
          "name": "_saleEndTime",
          "type": "uint256"
        },
        {
          "name": "_lockedDays",
          "type": "uint256"
        }
      ],
      "payable": false,
      "stateMutability": "nonpayable",
      "type": "constructor"
    },
    {
      "payable": true,
      "stateMutability": "payable",
      "type": "fallback"
    },
    {
      "anonymous": false,
      "inputs": [
        {
          "indexed": true,
          "name": "_proxy",
          "type": "bytes32"
        },
        {
          "indexed": false,
          "name": "_recipient",
          "type": "address"
        },
        {
          "indexed": false,
          "name": "_amountInWei",
          "type": "uint256"
        }
      ],
      "name": "ProxyBuy",
      "type": "event"
    },
    {
      "anonymous": false,
      "inputs": [
        {
          "indexed": false,
          "name": "_buyer",
          "type": "address"
        },
        {
          "indexed": false,
          "name": "_tokens",
          "type": "uint256"
        },
        {
          "indexed": false,
          "name": "_payedWei",
          "type": "uint256"
        }
      ],
      "name": "Buy",
      "type": "event"
    },
    {
      "anonymous": false,
      "inputs": [],
      "name": "FinalizeSale",
      "type": "event"
    }
  ],
  "bytecode": "0x606060405260058055341561001357600080fd5b6040516101208062002fac8339810160405280805190602001909190805190602001909190805190602001909190805190602001909190805190602001909190805190602001909190805190602001909190805190602001909190805190602001909190505086848484836000806101000a81548173ffffffffffffffffffffffffffffffffffffffff021916908373ffffffffffffffffffffffffffffffffffffffff160217905550826002819055508160038190555080600481905550600073ffffffffffffffffffffffffffffffffffffffff166000809054906101000a900473ffffffffffffffffffffffffffffffffffffffff1673ffffffffffffffffffffffffffffffffffffffff161415151561012f57600080fd5b60035460025410151561014157600080fd5b60045460035410151561015357600080fd5b5050505088600660006101000a81548173ffffffffffffffffffffffffffffffffffffffff021916908373ffffffffffffffffffffffffffffffffffffffff16021790555087600760006101000a81548173ffffffffffffffffffffffffffffffffffffffff021916908373ffffffffffffffffffffffffffffffffffffffff160217905550858483838c6101e66103a7565b808681526020018581526020018481526020018381526020018273ffffffffffffffffffffffffffffffffffffffff1673ffffffffffffffffffffffffffffffffffffffff16815260200195505050505050604051809103906000f080151561024e57600080fd5b600860006101000a81548173ffffffffffffffffffffffffffffffffffffffff021916908373ffffffffffffffffffffffffffffffffffffffff160217905550600860009054906101000a900473ffffffffffffffffffffffffffffffffffffffff1673ffffffffffffffffffffffffffffffffffffffff1663a9059cbb600760009054906101000a900473ffffffffffffffffffffffffffffffffffffffff16876000604051602001526040518363ffffffff167c0100000000000000000000000000000000000000000000000000000000028152600401808373ffffffffffffffffffffffffffffffffffffffff1673ffffffffffffffffffffffffffffffffffffffff16815260200182815260200192505050602060405180830381600087803b151561037d57600080fd5b6102c65a03f1151561038e57600080fd5b50505060405180519050505050505050505050506103b8565b6040516116d580620018d783390190565b61150f80620003c86000396000f300606060405260043610610133576000357c0100000000000000000000000000000000000000000000000000000000900463ffffffff1680630f560cd71461013f5780631cbaee2d1461019457806332b182c3146101bd578063442085b2146102135780634b8feb4f1461026057806358a687ec146102b55780635c474f9e146102ca5780635fbaa390146102f757806362aac84d1461032457806371a18bfb14610349578063844323fa1461039a5780638a2e467c146103c35780639b8906ae146103ec578063adfceb9a14610419578063b1f5618714610468578063b3bd870a14610472578063bc59d45a146104bf578063c4716d0f146104e8578063d2fa1f8b14610535578063ed338ff114610570578063f088d54714610599578063f851a440146105db578063fc0c546a14610630575b61013c33610685565b50005b341561014a57600080fd5b6101526108ff565b604051808273ffffffffffffffffffffffffffffffffffffffff1673ffffffffffffffffffffffffffffffffffffffff16815260200191505060405180910390f35b341561019f57600080fd5b6101a7610924565b6040518082815260200191505060405180910390f35b34156101c857600080fd5b6101fd600480803573ffffffffffffffffffffffffffffffffffffffff1690602001909190803590602001909190505061092a565b6040518082815260200191505060405180910390f35b341561021e57600080fd5b61024a600480803573ffffffffffffffffffffffffffffffffffffffff16906020019091905050610ae0565b6040518082815260200191505060405180910390f35b341561026b57600080fd5b610273610bf5565b604051808273ffffffffffffffffffffffffffffffffffffffff1673ffffffffffffffffffffffffffffffffffffffff16815260200191505060405180910390f35b34156102c057600080fd5b6102c8610c1b565b005b34156102d557600080fd5b6102dd610e4c565b604051808215151515815260200191505060405180910390f35b341561030257600080fd5b61030a610e59565b604051808215151515815260200191505060405180910390f35b341561032f57600080fd5b61034760048080351515906020019091905050610e6c565b005b341561035457600080fd5b610380600480803573ffffffffffffffffffffffffffffffffffffffff16906020019091905050610ee5565b604051808215151515815260200191505060405180910390f35b34156103a557600080fd5b6103ad611184565b6040518082815260200191505060405180910390f35b34156103ce57600080fd5b6103d661118a565b6040518082815260200191505060405180910390f35b34156103f757600080fd5b6103ff611190565b604051808215151515815260200191505060405180910390f35b61045260048080356000191690602001909190803573ffffffffffffffffffffffffffffffffffffffff1690602001909190505061119c565b6040518082815260200191505060405180910390f35b610470611271565b005b341561047d57600080fd5b6104a9600480803573ffffffffffffffffffffffffffffffffffffffff1690602001909190505061128b565b6040518082815260200191505060405180910390f35b34156104ca57600080fd5b6104d26112a3565b6040518082815260200191505060405180910390f35b34156104f357600080fd5b61051f600480803573ffffffffffffffffffffffffffffffffffffffff169060200190919050506112a9565b6040518082815260200191505060405180910390f35b341561054057600080fd5b61055a6004808035600019169060200190919050506112f2565b6040518082815260200191505060405180910390f35b341561057b57600080fd5b61058361130a565b6040518082815260200191505060405180910390f35b6105c5600480803573ffffffffffffffffffffffffffffffffffffffff16906020019091905050610685565b6040518082815260200191505060405180910390f35b34156105e657600080fd5b6105ee611310565b604051808273ffffffffffffffffffffffffffffffffffffffff1673ffffffffffffffffffffffffffffffffffffffff16815260200191505060405180910390f35b341561063b57600080fd5b610643611336565b604051808273ffffffffffffffffffffffffffffffffffffffff1673ffffffffffffffffffffffffffffffffffffffff16815260200191505060405180910390f35b6000806000640ba43b74003a1115151561069e57600080fd5b600a60009054906101000a900460ff161515156106ba57600080fd5b6106c2610e4c565b15156106cd57600080fd5b6106d5611190565b1515156106e157600080fd5b6106eb843461135c565b91506000821115156106fc57600080fd5b81341115610757573373ffffffffffffffffffffffffffffffffffffffff166108fc610731843461141490919063ffffffff16565b9081150290604051600060405180830381858888f19350505050151561075657600080fd5b5b6107608261142d565b6107758260095461149290919063ffffffff16565b600981905550610790611388836114b090919063ffffffff16565b9050600860009054906101000a900473ffffffffffffffffffffffffffffffffffffffff1673ffffffffffffffffffffffffffffffffffffffff1663a9059cbb85836000604051602001526040518363ffffffff167c0100000000000000000000000000000000000000000000000000000000028152600401808373ffffffffffffffffffffffffffffffffffffffff1673ffffffffffffffffffffffffffffffffffffffff16815260200182815260200192505050602060405180830381600087803b151561085f57600080fd5b6102c65a03f1151561087057600080fd5b50505060405180519050151561088257fe5b7f1cbc5ab135991bd2b6a4b034a04aa2aa086dac1371cb9b16b8b5e2ed6b036bed848284604051808473ffffffffffffffffffffffffffffffffffffffff1673ffffffffffffffffffffffffffffffffffffffff168152602001838152602001828152602001935050505060405180910390a18192505050919050565b6000809054906101000a900473ffffffffffffffffffffffffffffffffffffffff1681565b60025481565b6000806000806002544210156109435760009350610ad7565b600454421015156109575760009350610ad7565b6000809054906101000a900473ffffffffffffffffffffffffffffffffffffffff1673ffffffffffffffffffffffffffffffffffffffff1663b3aefb75876000604051602001526040518263ffffffff167c0100000000000000000000000000000000000000000000000000000000028152600401808273ffffffffffffffffffffffffffffffffffffffff1673ffffffffffffffffffffffffffffffffffffffff168152602001915050602060405180830381600087803b1515610a1b57600080fd5b6102c65a03f11515610a2c57600080fd5b5050506040518051905092506000831415610a4a5760009350610ad7565b829150600354421115610a6f57610a6c600554846114b090919063ffffffff16565b91505b610ac1600160008873ffffffffffffffffffffffffffffffffffffffff1673ffffffffffffffffffffffffffffffffffffffff168152602001908152602001600020548361141490919063ffffffff16565b905084811115610ad357849350610ad7565b8093505b50505092915050565b60008060008060009054906101000a900473ffffffffffffffffffffffffffffffffffffffff1673ffffffffffffffffffffffffffffffffffffffff1663b3aefb75856000604051602001526040518263ffffffff167c0100000000000000000000000000000000000000000000000000000000028152600401808273ffffffffffffffffffffffffffffffffffffffff1673ffffffffffffffffffffffffffffffffffffffff168152602001915050602060405180830381600087803b1515610ba957600080fd5b6102c65a03f11515610bba57600080fd5b505050604051805190509150819050600354421115610beb57610be8600554836114b090919063ffffffff16565b90505b8092505050919050565b600760009054906101000a900473ffffffffffffffffffffffffffffffffffffffff1681565b610c23611190565b1515610c2e57600080fd5b600660009054906101000a900473ffffffffffffffffffffffffffffffffffffffff1673ffffffffffffffffffffffffffffffffffffffff163373ffffffffffffffffffffffffffffffffffffffff16141515610c8a57600080fd5b600860009054906101000a900473ffffffffffffffffffffffffffffffffffffffff1673ffffffffffffffffffffffffffffffffffffffff166342966c68600860009054906101000a900473ffffffffffffffffffffffffffffffffffffffff1673ffffffffffffffffffffffffffffffffffffffff166370a08231306000604051602001526040518263ffffffff167c0100000000000000000000000000000000000000000000000000000000028152600401808273ffffffffffffffffffffffffffffffffffffffff1673ffffffffffffffffffffffffffffffffffffffff168152602001915050602060405180830381600087803b1515610d8d57600080fd5b6102c65a03f11515610d9e57600080fd5b505050604051805190506000604051602001526040518263ffffffff167c010000000000000000000000000000000000000000000000000000000002815260040180828152602001915050602060405180830381600087803b1515610e0257600080fd5b6102c65a03f11515610e1357600080fd5b50505060405180519050507f49943394d1d9872d58364da1ca74d2b7af3f9be1146ac3c37513b0b1cb97ae2b60405160405180910390a1565b6000600254421015905090565b600a60009054906101000a900460ff1681565b600660009054906101000a900473ffffffffffffffffffffffffffffffffffffffff1673ffffffffffffffffffffffffffffffffffffffff163373ffffffffffffffffffffffffffffffffffffffff16141515610ec857600080fd5b80600a60006101000a81548160ff02191690831515021790555050565b6000600660009054906101000a900473ffffffffffffffffffffffffffffffffffffffff1673ffffffffffffffffffffffffffffffffffffffff163373ffffffffffffffffffffffffffffffffffffffff16141515610f4357600080fd5b610f4b611190565b1515610f5657600080fd5b60003073ffffffffffffffffffffffffffffffffffffffff16311115610f9757610f963073ffffffffffffffffffffffffffffffffffffffff163161142d565b5b600073ffffffffffffffffffffffffffffffffffffffff168273ffffffffffffffffffffffffffffffffffffffff1614151561117b578173ffffffffffffffffffffffffffffffffffffffff1663a9059cbb600760009054906101000a900473ffffffffffffffffffffffffffffffffffffffff168473ffffffffffffffffffffffffffffffffffffffff166370a08231306000604051602001526040518263ffffffff167c0100000000000000000000000000000000000000000000000000000000028152600401808273ffffffffffffffffffffffffffffffffffffffff1673ffffffffffffffffffffffffffffffffffffffff168152602001915050602060405180830381600087803b15156110af57600080fd5b6102c65a03f115156110c057600080fd5b505050604051805190506000604051602001526040518363ffffffff167c0100000000000000000000000000000000000000000000000000000000028152600401808373ffffffffffffffffffffffffffffffffffffffff1673ffffffffffffffffffffffffffffffffffffffff16815260200182815260200192505050602060405180830381600087803b151561115757600080fd5b6102c65a03f1151561116857600080fd5b50505060405180519050151561117a57fe5b5b60019050919050565b60055481565b60035481565b60006004544211905090565b6000806111a883610685565b90506111d881600b600087600019166000191681526020019081526020016000205461149290919063ffffffff16565b600b600086600019166000191681526020019081526020016000208190555083600019167f09b5e4ada20eb4159976b564984473a225172608d4205eeafdc663a0cea8d4848483604051808373ffffffffffffffffffffffffffffffffffffffff1673ffffffffffffffffffffffffffffffffffffffff1681526020018281526020019250505060405180910390a28091505092915050565b607b3414151561128057600080fd5b6112893461142d565b565b60016020528060005260406000206000915090505481565b60095481565b6000600160008373ffffffffffffffffffffffffffffffffffffffff1673ffffffffffffffffffffffffffffffffffffffff168152602001908152602001600020549050919050565b600b6020528060005260406000206000915090505481565b60045481565b600660009054906101000a900473ffffffffffffffffffffffffffffffffffffffff1681565b600860009054906101000a900473ffffffffffffffffffffffffffffffffffffffff1681565b600080611369848461092a565b9050600081111561140a576113c681600160008773ffffffffffffffffffffffffffffffffffffffff1673ffffffffffffffffffffffffffffffffffffffff1681526020019081526020016000205461149290919063ffffffff16565b600160008673ffffffffffffffffffffffffffffffffffffffff1673ffffffffffffffffffffffffffffffffffffffff168152602001908152602001600020819055505b8091505092915050565b600082821115151561142257fe5b818303905092915050565b600760009054906101000a900473ffffffffffffffffffffffffffffffffffffffff1673ffffffffffffffffffffffffffffffffffffffff166108fc829081150290604051600060405180830381858888f19350505050151561148f57600080fd5b50565b60008082840190508381101515156114a657fe5b8091505092915050565b600080828402905060008414806114d157508284828115156114ce57fe5b04145b15156114d957fe5b80915050929150505600a165627a7a72305820632ff81c0c04a5abb482578b8504e1224618138d736f0f1e5902205d98ed2eb5002960606040526000600655341561001457600080fd5b60405160a0806116d58339810160405280805190602001909190805190602001909190805190602001909190805190602001909190805190602001909190505033600360006101000a81548173ffffffffffffffffffffffffffffffffffffffff021916908373ffffffffffffffffffffffffffffffffffffffff16021790555084600160003373ffffffffffffffffffffffffffffffffffffffff1673ffffffffffffffffffffffffffffffffffffffff16815260200190815260200160002081905550846000819055503373ffffffffffffffffffffffffffffffffffffffff16600073ffffffffffffffffffffffffffffffffffffffff167fddf252ad1be2c89b69c2b068fc378daa952ba7f163c4a11628f55a4df523b3ef876040518082815260200191505060405180910390a383600481905550826005819055508160068190555033600760006101000a81548173ffffffffffffffffffffffffffffffffffffffff021916908373ffffffffffffffffffffffffffffffffffffffff1602179055506101b8816101c264010000000002610ea8176401000000009004565b5050505050610299565b600360009054906101000a900473ffffffffffffffffffffffffffffffffffffffff1673ffffffffffffffffffffffffffffffffffffffff163373ffffffffffffffffffffffffffffffffffffffff1614151561021e57600080fd5b600073ffffffffffffffffffffffffffffffffffffffff168173ffffffffffffffffffffffffffffffffffffffff161415156102965780600360006101000a81548173ffffffffffffffffffffffffffffffffffffffff021916908373ffffffffffffffffffffffffffffffffffffffff1602179055505b50565b61142d806102a86000396000f3006060604052600436106100f1576000357c0100000000000000000000000000000000000000000000000000000000900463ffffffff16806306fdde03146100f6578063095ea7b31461018457806318160ddd146101de5780631cbaee2d1461020757806323b872dd14610230578063313ce567146102a957806342966c68146102d25780635d5aa2771461030d57806370a08231146103625780638da5cb5b146103af57806395d89b41146104045780639c08606c14610492578063a9059cbb146104bb578063db0e16f114610515578063dd62ed3e14610557578063ed338ff1146105c3578063f2fde38b146105ec575b600080fd5b341561010157600080fd5b610109610625565b6040518080602001828103825283818151815260200191508051906020019080838360005b8381101561014957808201518184015260208101905061012e565b50505050905090810190601f1680156101765780820380516001836020036101000a031916815260200191505b509250505060405180910390f35b341561018f57600080fd5b6101c4600480803573ffffffffffffffffffffffffffffffffffffffff1690602001909190803590602001909190505061065e565b604051808215151515815260200191505060405180910390f35b34156101e957600080fd5b6101f16107e5565b6040518082815260200191505060405180910390f35b341561021257600080fd5b61021a6107eb565b6040518082815260200191505060405180910390f35b341561023b57600080fd5b61028f600480803573ffffffffffffffffffffffffffffffffffffffff1690602001909190803573ffffffffffffffffffffffffffffffffffffffff169060200190919080359060200190919050506107f1565b604051808215151515815260200191505060405180910390f35b34156102b457600080fd5b6102bc6108ff565b6040518082815260200191505060405180910390f35b34156102dd57600080fd5b6102f36004808035906020019091905050610904565b604051808215151515815260200191505060405180910390f35b341561031857600080fd5b610320610af2565b604051808273ffffffffffffffffffffffffffffffffffffffff1673ffffffffffffffffffffffffffffffffffffffff16815260200191505060405180910390f35b341561036d57600080fd5b610399600480803573ffffffffffffffffffffffffffffffffffffffff16906020019091905050610b18565b6040518082815260200191505060405180910390f35b34156103ba57600080fd5b6103c2610b61565b604051808273ffffffffffffffffffffffffffffffffffffffff1673ffffffffffffffffffffffffffffffffffffffff16815260200191505060405180910390f35b341561040f57600080fd5b610417610b87565b6040518080602001828103825283818151815260200191508051906020019080838360005b8381101561045757808201518184015260208101905061043c565b50505050905090810190601f1680156104845780820380516001836020036101000a031916815260200191505b509250505060405180910390f35b341561049d57600080fd5b6104a5610bc0565b6040518082815260200191505060405180910390f35b34156104c657600080fd5b6104fb600480803573ffffffffffffffffffffffffffffffffffffffff16906020019091908035906020019091905050610bc6565b604051808215151515815260200191505060405180910390f35b341561052057600080fd5b610555600480803573ffffffffffffffffffffffffffffffffffffffff16906020019091908035906020019091905050610cd2565b005b341561056257600080fd5b6105ad600480803573ffffffffffffffffffffffffffffffffffffffff1690602001909190803573ffffffffffffffffffffffffffffffffffffffff16906020019091905050610e1b565b6040518082815260200191505060405180910390f35b34156105ce57600080fd5b6105d6610ea2565b6040518082815260200191505060405180910390f35b34156105f757600080fd5b610623600480803573ffffffffffffffffffffffffffffffffffffffff16906020019091905050610ea8565b005b6040805190810160405280600f81526020017f454c4543545249465920544f4b454e000000000000000000000000000000000081525081565b6000808214806106ea57506000600260003373ffffffffffffffffffffffffffffffffffffffff1673ffffffffffffffffffffffffffffffffffffffff16815260200190815260200160002060008573ffffffffffffffffffffffffffffffffffffffff1673ffffffffffffffffffffffffffffffffffffffff16815260200190815260200160002054145b15156106f557600080fd5b81600260003373ffffffffffffffffffffffffffffffffffffffff1673ffffffffffffffffffffffffffffffffffffffff16815260200190815260200160002060008573ffffffffffffffffffffffffffffffffffffffff1673ffffffffffffffffffffffffffffffffffffffff168152602001908152602001600020819055508273ffffffffffffffffffffffffffffffffffffffff163373ffffffffffffffffffffffffffffffffffffffff167f8c5be1e5ebec7d5bd14f71427d1e84f3dd0314c0f7b2291e5b200ac8c7c3b925846040518082815260200191505060405180910390a36001905092915050565b60005481565b60045481565b6000620151806006540260055401421115801561081057506004544210155b1561087257600760009054906101000a900473ffffffffffffffffffffffffffffffffffffffff1673ffffffffffffffffffffffffffffffffffffffff163373ffffffffffffffffffffffffffffffffffffffff1614151561087157600080fd5b5b82600073ffffffffffffffffffffffffffffffffffffffff168173ffffffffffffffffffffffffffffffffffffffff16141515156108af57600080fd5b3073ffffffffffffffffffffffffffffffffffffffff168173ffffffffffffffffffffffffffffffffffffffff16141515156108ea57600080fd5b6108f5858585610f7f565b9150509392505050565b601281565b6000620151806006540260055401421115801561092357506004544210155b1561098557600760009054906101000a900473ffffffffffffffffffffffffffffffffffffffff1673ffffffffffffffffffffffffffffffffffffffff163373ffffffffffffffffffffffffffffffffffffffff1614151561098457600080fd5b5b6109d782600160003373ffffffffffffffffffffffffffffffffffffffff1673ffffffffffffffffffffffffffffffffffffffff1681526020019081526020016000205461122f90919063ffffffff16565b600160003373ffffffffffffffffffffffffffffffffffffffff1673ffffffffffffffffffffffffffffffffffffffff16815260200190815260200160002081905550610a2f8260005461122f90919063ffffffff16565b6000819055503373ffffffffffffffffffffffffffffffffffffffff167fcc16f5dbb4873280815c1ee09dbd06736cffcc184412cf7a71a0fdb75d397ca5836040518082815260200191505060405180910390a2600073ffffffffffffffffffffffffffffffffffffffff163373ffffffffffffffffffffffffffffffffffffffff167fddf252ad1be2c89b69c2b068fc378daa952ba7f163c4a11628f55a4df523b3ef846040518082815260200191505060405180910390a360019050919050565b600760009054906101000a900473ffffffffffffffffffffffffffffffffffffffff1681565b6000600160008373ffffffffffffffffffffffffffffffffffffffff1673ffffffffffffffffffffffffffffffffffffffff168152602001908152602001600020549050919050565b600360009054906101000a900473ffffffffffffffffffffffffffffffffffffffff1681565b6040805190810160405280600481526020017f454c45430000000000000000000000000000000000000000000000000000000081525081565b60065481565b60006201518060065402600554014211158015610be557506004544210155b15610c4757600760009054906101000a900473ffffffffffffffffffffffffffffffffffffffff1673ffffffffffffffffffffffffffffffffffffffff163373ffffffffffffffffffffffffffffffffffffffff16141515610c4657600080fd5b5b82600073ffffffffffffffffffffffffffffffffffffffff168173ffffffffffffffffffffffffffffffffffffffff1614151515610c8457600080fd5b3073ffffffffffffffffffffffffffffffffffffffff168173ffffffffffffffffffffffffffffffffffffffff1614151515610cbf57600080fd5b610cc98484611248565b91505092915050565b600360009054906101000a900473ffffffffffffffffffffffffffffffffffffffff1673ffffffffffffffffffffffffffffffffffffffff163373ffffffffffffffffffffffffffffffffffffffff16141515610d2e57600080fd5b8173ffffffffffffffffffffffffffffffffffffffff1663a9059cbb600360009054906101000a900473ffffffffffffffffffffffffffffffffffffffff16836000604051602001526040518363ffffffff167c0100000000000000000000000000000000000000000000000000000000028152600401808373ffffffffffffffffffffffffffffffffffffffff1673ffffffffffffffffffffffffffffffffffffffff16815260200182815260200192505050602060405180830381600087803b1515610dfb57600080fd5b6102c65a03f11515610e0c57600080fd5b50505060405180519050505050565b6000600260008473ffffffffffffffffffffffffffffffffffffffff1673ffffffffffffffffffffffffffffffffffffffff16815260200190815260200160002060008373ffffffffffffffffffffffffffffffffffffffff1673ffffffffffffffffffffffffffffffffffffffff16815260200190815260200160002054905092915050565b60055481565b600360009054906101000a900473ffffffffffffffffffffffffffffffffffffffff1673ffffffffffffffffffffffffffffffffffffffff163373ffffffffffffffffffffffffffffffffffffffff16141515610f0457600080fd5b600073ffffffffffffffffffffffffffffffffffffffff168173ffffffffffffffffffffffffffffffffffffffff16141515610f7c5780600360006101000a81548173ffffffffffffffffffffffffffffffffffffffff021916908373ffffffffffffffffffffffffffffffffffffffff1602179055505b50565b600080600260008673ffffffffffffffffffffffffffffffffffffffff1673ffffffffffffffffffffffffffffffffffffffff16815260200190815260200160002060003373ffffffffffffffffffffffffffffffffffffffff1673ffffffffffffffffffffffffffffffffffffffff16815260200190815260200160002054905061105383600160008873ffffffffffffffffffffffffffffffffffffffff1673ffffffffffffffffffffffffffffffffffffffff1681526020019081526020016000205461122f90919063ffffffff16565b600160008773ffffffffffffffffffffffffffffffffffffffff1673ffffffffffffffffffffffffffffffffffffffff168152602001908152602001600020819055506110e883600160008773ffffffffffffffffffffffffffffffffffffffff1673ffffffffffffffffffffffffffffffffffffffff168152602001908152602001600020546113e390919063ffffffff16565b600160008673ffffffffffffffffffffffffffffffffffffffff1673ffffffffffffffffffffffffffffffffffffffff1681526020019081526020016000208190555061113e838261122f90919063ffffffff16565b600260008773ffffffffffffffffffffffffffffffffffffffff1673ffffffffffffffffffffffffffffffffffffffff16815260200190815260200160002060003373ffffffffffffffffffffffffffffffffffffffff1673ffffffffffffffffffffffffffffffffffffffff168152602001908152602001600020819055508373ffffffffffffffffffffffffffffffffffffffff168573ffffffffffffffffffffffffffffffffffffffff167fddf252ad1be2c89b69c2b068fc378daa952ba7f163c4a11628f55a4df523b3ef856040518082815260200191505060405180910390a360019150509392505050565b600082821115151561123d57fe5b818303905092915050565b600061129c82600160003373ffffffffffffffffffffffffffffffffffffffff1673ffffffffffffffffffffffffffffffffffffffff1681526020019081526020016000205461122f90919063ffffffff16565b600160003373ffffffffffffffffffffffffffffffffffffffff1673ffffffffffffffffffffffffffffffffffffffff1681526020019081526020016000208190555061133182600160008673ffffffffffffffffffffffffffffffffffffffff1673ffffffffffffffffffffffffffffffffffffffff168152602001908152602001600020546113e390919063ffffffff16565b600160008573ffffffffffffffffffffffffffffffffffffffff1673ffffffffffffffffffffffffffffffffffffffff168152602001908152602001600020819055508273ffffffffffffffffffffffffffffffffffffffff163373ffffffffffffffffffffffffffffffffffffffff167fddf252ad1be2c89b69c2b068fc378daa952ba7f163c4a11628f55a4df523b3ef846040518082815260200191505060405180910390a36001905092915050565b60008082840190508381101515156113f757fe5b80915050929150505600a165627a7a72305820a71be82ee884b7a272247aabbc23227551b2fc086ffde8a8f76c678cecf659fb0029",
  "source": "pragma solidity ^0.4.0;\n\nimport './ElecTokenSmartContract.sol';\nimport './ElecApprover.sol';\nimport './ElecWhitelist.sol';\n\ncontract ElecSaleSmartContract is ElecApprover{\n    address             public admin;\n    address             public multiSigWallet; // can be a single wallet\n    ElecTokenSmartContract public token;\n    uint                public raisedWei;\n    bool                public haltSale;\n\n    mapping(bytes32=>uint) public proxyPurchases;\n\n    function ElecSaleSmartContract( address _admin,\n    address _multiSigWallet,\n    ElecWhitelist _whiteListContract,\n    uint _totalTokenSupply,\n    uint _companyTokenSupply,\n    uint saleStartTime,\n    uint _firstRoundTime,\n    uint _saleEndTime,\n    uint _lockedDays)\n\n    ElecApprover( _whiteListContract,\n    saleStartTime,\n    _firstRoundTime,\n    _saleEndTime )\n    {\n        admin = _admin;\n        multiSigWallet = _multiSigWallet;\n\n        token = new ElecTokenSmartContract( _totalTokenSupply,\n        saleStartTime,\n        _saleEndTime,\n        _lockedDays, ///change depending on each project\n        _admin );\n\n        // transfer preminted tokens to company wallet\n        token.transfer( multiSigWallet, _companyTokenSupply );\n    }\n\n    function setHaltSale( bool halt ) {\n        require( msg.sender == admin );\n        haltSale = halt;\n    }\n\n    function() payable {\n        buy( msg.sender );\n    }\n\n    event ProxyBuy( bytes32 indexed _proxy, address _recipient, uint _amountInWei );\n    function proxyBuy( bytes32 proxy, address recipient ) payable returns(uint){\n        uint amount = buy( recipient );\n        proxyPurchases[proxy] = proxyPurchases[proxy].add(amount);\n        ProxyBuy( proxy, recipient, amount );\n\n\n        return amount;\n    }\n\n    event Buy( address _buyer, uint _tokens, uint _payedWei );\n    function buy( address recipient ) payable returns(uint){\n        require( tx.gasprice <= 50000000000 wei );\n\n        require( ! haltSale );\n        require( saleStarted() );\n        require( ! saleEnded() );\n\n        uint weiPayment = eligibleTestAndIncrement( recipient, msg.value );\n\n        require( weiPayment > 0 );\n\n        // send to msg.sender, not to recipient\n        if( msg.value > weiPayment ) {\n            msg.sender.transfer( msg.value.sub( weiPayment ) );\n        }\n\n        // send payment to wallet\n        sendETHToMultiSig( weiPayment );\n        raisedWei = raisedWei.add( weiPayment );\n        uint recievedTokens = weiPayment.mul( 5000 );\n\n        assert( token.transfer( recipient, recievedTokens ) );\n\n\n        Buy( recipient, recievedTokens, weiPayment );\n\n        return weiPayment;\n    }\n\n    function sendETHToMultiSig( uint value ) internal {\n        multiSigWallet.transfer( value );\n    }\n\n    event FinalizeSale();\n    // function is callable by everyone\n    function finalizeSale() {\n        require( saleEnded() );\n        require( msg.sender == admin );\n\n        // burn remaining tokens\n        token.burn(token.balanceOf(this));\n\n        FinalizeSale();\n    }\n\n    // ETH balance is always expected to be 0.\n    // but in case something went wrong, we use this function to extract the eth.\n    function emergencyDrain(ERC20 anyToken) returns(bool){\n        require( msg.sender == admin );\n        require( saleEnded() );\n\n        if( this.balance > 0 ) {\n            sendETHToMultiSig( this.balance );\n        }\n\n        if( anyToken != address(0x0) ) {\n            assert( anyToken.transfer(multiSigWallet, anyToken.balanceOf(this)) );\n        }\n\n        return true;\n    }\n\n    // just to check that funds goes to the right place\n    // tokens are not given in return\n    function debugBuy() payable {\n        require( msg.value == 123 );\n        sendETHToMultiSig( msg.value );\n    }\n}",
  "sourcePath": "/Users/tuongbui/Storage/Electrify/Smart-Contracts/contracts/ElecSaleSmartContract.sol",
  "compiler": {
    "name": "solc",
    "version": "0.4.18+commit.9cf6e910.Emscripten.clang"
  },
  "schemaVersion": "1.0.1",
  "updatedAt": "2018-01-28T05:11:45.057Z"
}