{
  "contractName": "ElecAirdropSmartContract",
  "abi": [
    {
      "constant": true,
      "inputs": [],
      "name": "haltAirdrop",
      "outputs": [
        {
          "name": "",
          "type": "bool"
        }
      ],
      "payable": false,
      "stateMutability": "view",
      "type": "function"
    },
    {
      "constant": false,
      "inputs": [
        {
          "name": "_omgAddresses",
          "type": "address[]"
        },
        {
          "name": "_amounts",
          "type": "uint256[]"
        }
      ],
      "name": "elecAirdropForOmgAccs",
      "outputs": [],
      "payable": false,
      "stateMutability": "nonpayable",
      "type": "function"
    },
    {
      "constant": false,
      "inputs": [],
      "name": "emergencyDrain",
      "outputs": [
        {
          "name": "",
          "type": "bool"
        }
      ],
      "payable": false,
      "stateMutability": "nonpayable",
      "type": "function"
    },
    {
      "constant": true,
      "inputs": [],
      "name": "omgDropped",
      "outputs": [
        {
          "name": "",
          "type": "uint256"
        }
      ],
      "payable": false,
      "stateMutability": "view",
      "type": "function"
    },
    {
      "constant": true,
      "inputs": [],
      "name": "hdWallet",
      "outputs": [
        {
          "name": "",
          "type": "address"
        }
      ],
      "payable": false,
      "stateMutability": "view",
      "type": "function"
    },
    {
      "constant": true,
      "inputs": [],
      "name": "whitelistDropped",
      "outputs": [
        {
          "name": "",
          "type": "uint256"
        }
      ],
      "payable": false,
      "stateMutability": "view",
      "type": "function"
    },
    {
      "constant": false,
      "inputs": [
        {
          "name": "_ethereumAddresses",
          "type": "address[]"
        },
        {
          "name": "_amounts",
          "type": "uint256[]"
        }
      ],
      "name": "elecAirdropForEthereumAccs",
      "outputs": [],
      "payable": false,
      "stateMutability": "nonpayable",
      "type": "function"
    },
    {
      "constant": true,
      "inputs": [],
      "name": "owner",
      "outputs": [
        {
          "name": "",
          "type": "address"
        }
      ],
      "payable": false,
      "stateMutability": "view",
      "type": "function"
    },
    {
      "constant": true,
      "inputs": [],
      "name": "whiteListCap",
      "outputs": [
        {
          "name": "",
          "type": "uint256"
        }
      ],
      "payable": false,
      "stateMutability": "view",
      "type": "function"
    },
    {
      "constant": true,
      "inputs": [],
      "name": "whitelist",
      "outputs": [
        {
          "name": "",
          "type": "address"
        }
      ],
      "payable": false,
      "stateMutability": "view",
      "type": "function"
    },
    {
      "constant": true,
      "inputs": [],
      "name": "ethereumDropped",
      "outputs": [
        {
          "name": "",
          "type": "uint256"
        }
      ],
      "payable": false,
      "stateMutability": "view",
      "type": "function"
    },
    {
      "constant": true,
      "inputs": [],
      "name": "omgAmount",
      "outputs": [
        {
          "name": "",
          "type": "uint256"
        }
      ],
      "payable": false,
      "stateMutability": "view",
      "type": "function"
    },
    {
      "constant": false,
      "inputs": [
        {
          "name": "_halt",
          "type": "bool"
        }
      ],
      "name": "setHaltAirdrop",
      "outputs": [],
      "payable": false,
      "stateMutability": "nonpayable",
      "type": "function"
    },
    {
      "constant": false,
      "inputs": [
        {
          "name": "_whitelistAddresses",
          "type": "address[]"
        }
      ],
      "name": "elecAirdropForWhiteLists",
      "outputs": [],
      "payable": false,
      "stateMutability": "nonpayable",
      "type": "function"
    },
    {
      "constant": true,
      "inputs": [],
      "name": "perWhitelist",
      "outputs": [
        {
          "name": "",
          "type": "uint256"
        }
      ],
      "payable": false,
      "stateMutability": "view",
      "type": "function"
    },
    {
      "constant": true,
      "inputs": [],
      "name": "ethereumAmount",
      "outputs": [
        {
          "name": "",
          "type": "uint256"
        }
      ],
      "payable": false,
      "stateMutability": "view",
      "type": "function"
    },
    {
      "constant": false,
      "inputs": [
        {
          "name": "newOwner",
          "type": "address"
        }
      ],
      "name": "transferOwnership",
      "outputs": [],
      "payable": false,
      "stateMutability": "nonpayable",
      "type": "function"
    },
    {
      "constant": true,
      "inputs": [],
      "name": "admin",
      "outputs": [
        {
          "name": "",
          "type": "address"
        }
      ],
      "payable": false,
      "stateMutability": "view",
      "type": "function"
    },
    {
      "constant": true,
      "inputs": [],
      "name": "elecToken",
      "outputs": [
        {
          "name": "",
          "type": "address"
        }
      ],
      "payable": false,
      "stateMutability": "view",
      "type": "function"
    },
    {
      "constant": true,
      "inputs": [],
      "name": "whitelistAmount",
      "outputs": [
        {
          "name": "",
          "type": "uint256"
        }
      ],
      "payable": false,
      "stateMutability": "view",
      "type": "function"
    },
    {
      "inputs": [
        {
          "name": "_whitelistAmount",
          "type": "uint256"
        },
        {
          "name": "_ethereumAmount",
          "type": "uint256"
        },
        {
          "name": "_omgAmount",
          "type": "uint256"
        },
        {
          "name": "_admin",
          "type": "address"
        },
        {
          "name": "_hdWallet",
          "type": "address"
        },
        {
          "name": "_elecToken",
          "type": "address"
        },
        {
          "name": "_whitelist",
          "type": "address"
        }
      ],
      "payable": false,
      "stateMutability": "nonpayable",
      "type": "constructor"
    },
    {
      "anonymous": false,
      "inputs": [
        {
          "indexed": false,
          "name": "_whitelistAddress",
          "type": "address"
        },
        {
          "indexed": false,
          "name": "_amount",
          "type": "uint256"
        }
      ],
      "name": "ElecAirdropForWhiteList",
      "type": "event"
    },
    {
      "anonymous": false,
      "inputs": [
        {
          "indexed": false,
          "name": "_ethereumAddress",
          "type": "address"
        },
        {
          "indexed": false,
          "name": "_amount",
          "type": "uint256"
        }
      ],
      "name": "ElecAirdropForEthereumAcc",
      "type": "event"
    },
    {
      "anonymous": false,
      "inputs": [
        {
          "indexed": false,
          "name": "_omgAddress",
          "type": "address"
        },
        {
          "indexed": false,
          "name": "_amount",
          "type": "uint256"
        }
      ],
      "name": "ElecAirdropForOmgAcc",
      "type": "event"
    }
  ],
  "bytecode": "0x6060604052678ac7230489e80000600755670de0b6b3a7640000600855341561002757600080fd5b60405160e0806115bb83398101604052808051906020019091908051906020019091908051906020019091908051906020019091908051906020019091908051906020019091908051906020019091905050336000806101000a81548173ffffffffffffffffffffffffffffffffffffffff021916908373ffffffffffffffffffffffffffffffffffffffff16021790555086600181905550856002819055508460038190555083600960006101000a81548173ffffffffffffffffffffffffffffffffffffffff021916908373ffffffffffffffffffffffffffffffffffffffff16021790555082600a60006101000a81548173ffffffffffffffffffffffffffffffffffffffff021916908373ffffffffffffffffffffffffffffffffffffffff16021790555081600b60006101000a81548173ffffffffffffffffffffffffffffffffffffffff021916908373ffffffffffffffffffffffffffffffffffffffff16021790555080600c60006101000a81548173ffffffffffffffffffffffffffffffffffffffff021916908373ffffffffffffffffffffffffffffffffffffffff160217905550505050505050506113d3806101e86000396000f300606060405260043610610112576000357c0100000000000000000000000000000000000000000000000000000000900463ffffffff1680631bff78d314610117578063254d3cf0146101445780632caac08b146101de5780633495579e1461020b578063377e9a84146102345780636c7520b4146102895780636fb2475a146102b25780638da5cb5b1461034c57806392224fa8146103a157806393e59dc1146103ca578063a79782c81461041f578063b30f20a614610448578063b41b192c14610471578063bc3dc2a314610496578063e20a95d7146104f0578063eb06100b14610519578063f2fde38b14610542578063f851a4401461057b578063f8bb0051146105d0578063fb26a0c914610625575b600080fd5b341561012257600080fd5b61012a61064e565b604051808215151515815260200191505060405180910390f35b341561014f57600080fd5b6101dc60048080359060200190820180359060200190808060200260200160405190810160405280939291908181526020018383602002808284378201915050505050509190803590602001908201803590602001908080602002602001604051908101604052809392919081815260200183836020028082843782019150505050505091905050610661565b005b34156101e957600080fd5b6101f1610902565b604051808215151515815260200191505060405180910390f35b341561021657600080fd5b61021e610b58565b6040518082815260200191505060405180910390f35b341561023f57600080fd5b610247610b5e565b604051808273ffffffffffffffffffffffffffffffffffffffff1673ffffffffffffffffffffffffffffffffffffffff16815260200191505060405180910390f35b341561029457600080fd5b61029c610b84565b6040518082815260200191505060405180910390f35b34156102bd57600080fd5b61034a60048080359060200190820180359060200190808060200260200160405190810160405280939291908181526020018383602002808284378201915050505050509190803590602001908201803590602001908080602002602001604051908101604052809392919081815260200183836020028082843782019150505050505091905050610b8a565b005b341561035757600080fd5b61035f610e2a565b604051808273ffffffffffffffffffffffffffffffffffffffff1673ffffffffffffffffffffffffffffffffffffffff16815260200191505060405180910390f35b34156103ac57600080fd5b6103b4610e4f565b6040518082815260200191505060405180910390f35b34156103d557600080fd5b6103dd610e55565b604051808273ffffffffffffffffffffffffffffffffffffffff1673ffffffffffffffffffffffffffffffffffffffff16815260200191505060405180910390f35b341561042a57600080fd5b610432610e7b565b6040518082815260200191505060405180910390f35b341561045357600080fd5b61045b610e81565b6040518082815260200191505060405180910390f35b341561047c57600080fd5b61049460048080351515906020019091905050610e87565b005b34156104a157600080fd5b6104ee600480803590602001908201803590602001908080602002602001604051908101604052809392919081815260200183836020028082843782019150505050505091905050610f00565b005b34156104fb57600080fd5b610503611256565b6040518082815260200191505060405180910390f35b341561052457600080fd5b61052c61125c565b6040518082815260200191505060405180910390f35b341561054d57600080fd5b610579600480803573ffffffffffffffffffffffffffffffffffffffff16906020019091905050611262565b005b341561058657600080fd5b61058e611337565b604051808273ffffffffffffffffffffffffffffffffffffffff1673ffffffffffffffffffffffffffffffffffffffff16815260200191505060405180910390f35b34156105db57600080fd5b6105e361135d565b604051808273ffffffffffffffffffffffffffffffffffffffff1673ffffffffffffffffffffffffffffffffffffffff16815260200191505060405180910390f35b341561063057600080fd5b610638611383565b6040518082815260200191505060405180910390f35b600a60149054906101000a900460ff1681565b60008060009054906101000a900473ffffffffffffffffffffffffffffffffffffffff1673ffffffffffffffffffffffffffffffffffffffff163373ffffffffffffffffffffffffffffffffffffffff161415156106be57600080fd5b600a60149054906101000a900460ff161515156106da57600080fd5b81518351111515156106eb57600080fd5b600090505b82518110156108fd576003546006541115151561070c57600080fd5b600b60009054906101000a900473ffffffffffffffffffffffffffffffffffffffff1673ffffffffffffffffffffffffffffffffffffffff1663a9059cbb848381518110151561075857fe5b90602001906020020151848481518110151561077057fe5b906020019060200201516000604051602001526040518363ffffffff167c0100000000000000000000000000000000000000000000000000000000028152600401808373ffffffffffffffffffffffffffffffffffffffff1673ffffffffffffffffffffffffffffffffffffffff16815260200182815260200192505050602060405180830381600087803b151561080757600080fd5b6102c65a03f1151561081857600080fd5b50505060405180519050151561082a57fe5b610856828281518110151561083b57fe5b9060200190602002015160065461138990919063ffffffff16565b507f743e5104a5462e4615f0d87b9dcf934df0c208b5bb5f1a81f85d662814c19844838281518110151561088657fe5b90602001906020020151838381518110151561089e57fe5b90602001906020020151604051808373ffffffffffffffffffffffffffffffffffffffff1673ffffffffffffffffffffffffffffffffffffffff1681526020018281526020019250505060405180910390a180806001019150506106f0565b505050565b6000600960009054906101000a900473ffffffffffffffffffffffffffffffffffffffff1673ffffffffffffffffffffffffffffffffffffffff163373ffffffffffffffffffffffffffffffffffffffff1614151561096057600080fd5b600b60009054906101000a900473ffffffffffffffffffffffffffffffffffffffff1673ffffffffffffffffffffffffffffffffffffffff1663a9059cbb600a60009054906101000a900473ffffffffffffffffffffffffffffffffffffffff16600b60009054906101000a900473ffffffffffffffffffffffffffffffffffffffff1673ffffffffffffffffffffffffffffffffffffffff166370a08231306000604051602001526040518263ffffffff167c0100000000000000000000000000000000000000000000000000000000028152600401808273ffffffffffffffffffffffffffffffffffffffff1673ffffffffffffffffffffffffffffffffffffffff168152602001915050602060405180830381600087803b1515610a8657600080fd5b6102c65a03f11515610a9757600080fd5b505050604051805190506000604051602001526040518363ffffffff167c0100000000000000000000000000000000000000000000000000000000028152600401808373ffffffffffffffffffffffffffffffffffffffff1673ffffffffffffffffffffffffffffffffffffffff16815260200182815260200192505050602060405180830381600087803b1515610b2e57600080fd5b6102c65a03f11515610b3f57600080fd5b505050604051805190501515610b5157fe5b6001905090565b60065481565b600a60009054906101000a900473ffffffffffffffffffffffffffffffffffffffff1681565b60045481565b60008060009054906101000a900473ffffffffffffffffffffffffffffffffffffffff1673ffffffffffffffffffffffffffffffffffffffff163373ffffffffffffffffffffffffffffffffffffffff16141515610be757600080fd5b600a60149054906101000a900460ff16151515610c0357600080fd5b81518351141515610c1357600080fd5b600090505b8251811015610e255760025460055411151515610c3457600080fd5b600b60009054906101000a900473ffffffffffffffffffffffffffffffffffffffff1673ffffffffffffffffffffffffffffffffffffffff1663a9059cbb8483815181101515610c8057fe5b906020019060200201518484815181101515610c9857fe5b906020019060200201516000604051602001526040518363ffffffff167c0100000000000000000000000000000000000000000000000000000000028152600401808373ffffffffffffffffffffffffffffffffffffffff1673ffffffffffffffffffffffffffffffffffffffff16815260200182815260200192505050602060405180830381600087803b1515610d2f57600080fd5b6102c65a03f11515610d4057600080fd5b505050604051805190501515610d5257fe5b610d7e8282815181101515610d6357fe5b9060200190602002015160055461138990919063ffffffff16565b507f090d50f0d4bca39dd94a26e76835db8ceb80d5789f3eab98a4071f55b86897758382815181101515610dae57fe5b906020019060200201518383815181101515610dc657fe5b90602001906020020151604051808373ffffffffffffffffffffffffffffffffffffffff1673ffffffffffffffffffffffffffffffffffffffff1681526020018281526020019250505060405180910390a18080600101915050610c18565b505050565b6000809054906101000a900473ffffffffffffffffffffffffffffffffffffffff1681565b60085481565b600c60009054906101000a900473ffffffffffffffffffffffffffffffffffffffff1681565b60055481565b60035481565b600960009054906101000a900473ffffffffffffffffffffffffffffffffffffffff1673ffffffffffffffffffffffffffffffffffffffff163373ffffffffffffffffffffffffffffffffffffffff16141515610ee357600080fd5b80600a60146101000a81548160ff02191690831515021790555050565b60008060009054906101000a900473ffffffffffffffffffffffffffffffffffffffff1673ffffffffffffffffffffffffffffffffffffffff163373ffffffffffffffffffffffffffffffffffffffff16141515610f5d57600080fd5b600a60149054906101000a900460ff16151515610f7957600080fd5b600090505b815181101561125257600854600c60009054906101000a900473ffffffffffffffffffffffffffffffffffffffff1673ffffffffffffffffffffffffffffffffffffffff1663b3aefb758484815181101515610fd657fe5b906020019060200201516000604051602001526040518263ffffffff167c0100000000000000000000000000000000000000000000000000000000028152600401808273ffffffffffffffffffffffffffffffffffffffff1673ffffffffffffffffffffffffffffffffffffffff168152602001915050602060405180830381600087803b151561106657600080fd5b6102c65a03f1151561107757600080fd5b5050506040518051905014151561108d57600080fd5b600154600454111515156110a057600080fd5b600b60009054906101000a900473ffffffffffffffffffffffffffffffffffffffff1673ffffffffffffffffffffffffffffffffffffffff1663a9059cbb83838151811015156110ec57fe5b906020019060200201516007546000604051602001526040518363ffffffff167c0100000000000000000000000000000000000000000000000000000000028152600401808373ffffffffffffffffffffffffffffffffffffffff1673ffffffffffffffffffffffffffffffffffffffff16815260200182815260200192505050602060405180830381600087803b151561118657600080fd5b6102c65a03f1151561119757600080fd5b5050506040518051905015156111a957fe5b6111c060075460045461138990919063ffffffff16565b507f26a16a1505790285b37582dd55dd733da1117fb8c17c57ed1989c0694cfdce8882828151811015156111f057fe5b90602001906020020151600754604051808373ffffffffffffffffffffffffffffffffffffffff1673ffffffffffffffffffffffffffffffffffffffff1681526020018281526020019250505060405180910390a18080600101915050610f7e565b5050565b60075481565b60025481565b6000809054906101000a900473ffffffffffffffffffffffffffffffffffffffff1673ffffffffffffffffffffffffffffffffffffffff163373ffffffffffffffffffffffffffffffffffffffff161415156112bd57600080fd5b600073ffffffffffffffffffffffffffffffffffffffff168173ffffffffffffffffffffffffffffffffffffffff1614151561133457806000806101000a81548173ffffffffffffffffffffffffffffffffffffffff021916908373ffffffffffffffffffffffffffffffffffffffff1602179055505b50565b600960009054906101000a900473ffffffffffffffffffffffffffffffffffffffff1681565b600b60009054906101000a900473ffffffffffffffffffffffffffffffffffffffff1681565b60015481565b600080828401905083811015151561139d57fe5b80915050929150505600a165627a7a7230582001277a436d443a57cba16d7e306f641326dcc3836451ed919262fca9c493299e0029",
  "source": "pragma solidity ^0.4.0;\n\n/*\n\n# Copyright 2018 Electrify Pte Ltd\n\nAirdrop mechanism (for consideration) to announced only after ICO.\n\n1.1% dropped evenly to all whitelisted participants (as long as they filled up our form)\n\n1.5% dropped to ETH owners proportional to ETH balance (above min. balance of _ ETH, determined at block height __)\n\n1.5% dropped to OMG owners proportional to OMG balance (above min. balance of _ OMG, determined at block height __)\n\n\n*/\n\nimport './ElecTokenSmartContract.sol';\nimport './ElecWhitelist.sol';\nimport './zeppelin/math/SafeMath.sol';\n\n\ncontract ElecAirdropSmartContract is Ownable {\n    uint    public whitelistAmount;\n    uint    public ethereumAmount;\n    uint    public omgAmount;\n\n    uint    public whitelistDropped;\n    uint    public ethereumDropped;\n    uint    public omgDropped;\n\n\n    uint    public perWhitelist = 10 * (10**18); /// in wei\n    uint    public whiteListCap = (10**18); /// change to 1.067 in the mainet\n\n    address public admin;\n    address public hdWallet;\n    bool    public haltAirdrop;\n\n    using SafeMath for uint;\n\n\n    ElecTokenSmartContract  public elecToken; /// change it when the real address deployment\n    ElecWhitelist   public whitelist; /// change it for the mainnet address deployment\n\n    function ElecAirdropSmartContract(uint _whitelistAmount, uint _ethereumAmount, uint _omgAmount, address _admin, address _hdWallet, ElecTokenSmartContract _elecToken, ElecWhitelist _whitelist) public {\n        whitelistAmount = _whitelistAmount;\n        ethereumAmount = _ethereumAmount;\n        omgAmount = _omgAmount;\n        admin = _admin;\n        hdWallet = _hdWallet;\n        elecToken = _elecToken;\n        whitelist = _whitelist;\n    }\n\n\n\n\n    function setHaltAirdrop(bool _halt) public {\n        require(msg.sender == admin);\n        haltAirdrop = _halt;\n    }\n\n\n\n    event ElecAirdropForWhiteList(address _whitelistAddress, uint _amount);\n    /// for whitelist airdrop function\n    function elecAirdropForWhiteLists(address[] _whitelistAddresses) public onlyOwner {\n        require(!haltAirdrop);\n\n        for( uint i = 0; i < _whitelistAddresses.length; i++) {\n            require(whitelist.getCap(_whitelistAddresses[i]) == whiteListCap);\n\n            require( whitelistDropped <= whitelistAmount);\n\n            assert(elecToken.transfer(_whitelistAddresses[i],perWhitelist));\n\n            whitelistDropped.add(perWhitelist);\n\n            ElecAirdropForWhiteList(_whitelistAddresses[i],perWhitelist);\n        }\n    }\n\n\n\n    event ElecAirdropForEthereumAcc(address _ethereumAddress, uint _amount);\n    /// for multi-ethereum accounts\n    function elecAirdropForEthereumAccs(address[] _ethereumAddresses, uint[] _amounts) public onlyOwner {\n\n        require(!haltAirdrop);\n        require( _ethereumAddresses.length == _amounts.length);\n\n        for ( uint i=0; i < _ethereumAddresses.length; i++) {\n\n            require( ethereumDropped <= ethereumAmount);\n\n            assert(elecToken.transfer(_ethereumAddresses[i], _amounts[i]));\n\n            ethereumDropped.add(_amounts[i]);\n\n            ElecAirdropForEthereumAcc(_ethereumAddresses[i], _amounts[i]);\n        }\n    }\n\n\n    event ElecAirdropForOmgAcc(address _omgAddress, uint _amount);\n    /// for multi Airdrop accounts\n    function elecAirdropForOmgAccs(address[] _omgAddresses, uint[] _amounts) public onlyOwner {\n        require(!haltAirdrop);\n\n        require (_omgAddresses.length <= _amounts.length);\n\n        for (uint i=0; i < _omgAddresses.length; i++) {\n\n            require( omgDropped <= omgAmount);\n\n            assert(elecToken.transfer(_omgAddresses[i], _amounts[i]));\n\n            omgDropped.add(_amounts[i]);\n\n            ElecAirdropForOmgAcc(_omgAddresses[i], _amounts[i]);\n        }\n    }\n\n\n    /// emergencyDrain token\n    function emergencyDrain() public returns(bool) {\n        require(msg.sender == admin);\n        assert(elecToken.transfer(hdWallet, elecToken.balanceOf(this)));\n        return true;\n    }\n\n}\n",
  "sourcePath": "/Users/tuongbui/Storage/Electrify/airdropSmartContract/contracts/ElecAirdropSmartContract.sol",
  "compiler": {
    "name": "solc",
    "version": "0.4.18+commit.9cf6e910.Emscripten.clang"
  },
  "schemaVersion": "1.0.1",
  "updatedAt": "2018-03-04T11:14:06.590Z"
}