{
  "contractName": "ElecApprover",
  "abi": [
    {
      "constant": true,
      "inputs": [],
      "name": "list",
      "outputs": [
        {
          "name": "",
          "type": "address"
        }
      ],
      "payable": false,
      "stateMutability": "view",
      "type": "function"
    },
    {
      "constant": true,
      "inputs": [],
      "name": "saleStartTime",
      "outputs": [
        {
          "name": "",
          "type": "uint256"
        }
      ],
      "payable": false,
      "stateMutability": "view",
      "type": "function"
    },
    {
      "constant": true,
      "inputs": [
        {
          "name": "contributor",
          "type": "address"
        },
        {
          "name": "amountInWei",
          "type": "uint256"
        }
      ],
      "name": "eligible",
      "outputs": [
        {
          "name": "",
          "type": "uint256"
        }
      ],
      "payable": false,
      "stateMutability": "view",
      "type": "function"
    },
    {
      "constant": true,
      "inputs": [
        {
          "name": "contributor",
          "type": "address"
        }
      ],
      "name": "contributorCap",
      "outputs": [
        {
          "name": "",
          "type": "uint256"
        }
      ],
      "payable": false,
      "stateMutability": "view",
      "type": "function"
    },
    {
      "constant": true,
      "inputs": [],
      "name": "saleStarted",
      "outputs": [
        {
          "name": "",
          "type": "bool"
        }
      ],
      "payable": false,
      "stateMutability": "view",
      "type": "function"
    },
    {
      "constant": true,
      "inputs": [],
      "name": "xtime",
      "outputs": [
        {
          "name": "",
          "type": "uint256"
        }
      ],
      "payable": false,
      "stateMutability": "view",
      "type": "function"
    },
    {
      "constant": true,
      "inputs": [],
      "name": "firstRoundTime",
      "outputs": [
        {
          "name": "",
          "type": "uint256"
        }
      ],
      "payable": false,
      "stateMutability": "view",
      "type": "function"
    },
    {
      "constant": true,
      "inputs": [],
      "name": "saleEnded",
      "outputs": [
        {
          "name": "",
          "type": "bool"
        }
      ],
      "payable": false,
      "stateMutability": "view",
      "type": "function"
    },
    {
      "constant": true,
      "inputs": [
        {
          "name": "",
          "type": "address"
        }
      ],
      "name": "participated",
      "outputs": [
        {
          "name": "",
          "type": "uint256"
        }
      ],
      "payable": false,
      "stateMutability": "view",
      "type": "function"
    },
    {
      "constant": true,
      "inputs": [
        {
          "name": "_contributor",
          "type": "address"
        }
      ],
      "name": "contributedCap",
      "outputs": [
        {
          "name": "",
          "type": "uint256"
        }
      ],
      "payable": false,
      "stateMutability": "view",
      "type": "function"
    },
    {
      "constant": true,
      "inputs": [],
      "name": "saleEndTime",
      "outputs": [
        {
          "name": "",
          "type": "uint256"
        }
      ],
      "payable": false,
      "stateMutability": "view",
      "type": "function"
    },
    {
      "inputs": [
        {
          "name": "_whitelistContract",
          "type": "address"
        },
        {
          "name": "_saleStartTime",
          "type": "uint256"
        },
        {
          "name": "_firstRoundTime",
          "type": "uint256"
        },
        {
          "name": "_saleEndTime",
          "type": "uint256"
        }
      ],
      "payable": false,
      "stateMutability": "nonpayable",
      "type": "constructor"
    }
  ],
  "bytecode": "0x606060405260058055341561001357600080fd5b60405160808061087183398101604052808051906020019091908051906020019091908051906020019091908051906020019091905050836000806101000a81548173ffffffffffffffffffffffffffffffffffffffff021916908373ffffffffffffffffffffffffffffffffffffffff160217905550826002819055508160038190555080600481905550600073ffffffffffffffffffffffffffffffffffffffff166000809054906101000a900473ffffffffffffffffffffffffffffffffffffffff1673ffffffffffffffffffffffffffffffffffffffff16141515156100fc57600080fd5b60035460025410151561010e57600080fd5b60045460035410151561012057600080fd5b5050505061073e806101336000396000f3006060604052600436106100af576000357c0100000000000000000000000000000000000000000000000000000000900463ffffffff1680630f560cd7146100b45780631cbaee2d1461010957806332b182c314610132578063442085b2146101885780635c474f9e146101d5578063844323fa146102025780638a2e467c1461022b5780639b8906ae14610254578063b3bd870a14610281578063c4716d0f146102ce578063ed338ff11461031b575b600080fd5b34156100bf57600080fd5b6100c7610344565b604051808273ffffffffffffffffffffffffffffffffffffffff1673ffffffffffffffffffffffffffffffffffffffff16815260200191505060405180910390f35b341561011457600080fd5b61011c610369565b6040518082815260200191505060405180910390f35b341561013d57600080fd5b610172600480803573ffffffffffffffffffffffffffffffffffffffff1690602001909190803590602001909190505061036f565b6040518082815260200191505060405180910390f35b341561019357600080fd5b6101bf600480803573ffffffffffffffffffffffffffffffffffffffff16906020019091905050610525565b6040518082815260200191505060405180910390f35b34156101e057600080fd5b6101e861063a565b604051808215151515815260200191505060405180910390f35b341561020d57600080fd5b610215610647565b6040518082815260200191505060405180910390f35b341561023657600080fd5b61023e61064d565b6040518082815260200191505060405180910390f35b341561025f57600080fd5b610267610653565b604051808215151515815260200191505060405180910390f35b341561028c57600080fd5b6102b8600480803573ffffffffffffffffffffffffffffffffffffffff1690602001909190505061065f565b6040518082815260200191505060405180910390f35b34156102d957600080fd5b610305600480803573ffffffffffffffffffffffffffffffffffffffff16906020019091905050610677565b6040518082815260200191505060405180910390f35b341561032657600080fd5b61032e6106c0565b6040518082815260200191505060405180910390f35b6000809054906101000a900473ffffffffffffffffffffffffffffffffffffffff1681565b60025481565b600080600080600254421015610388576000935061051c565b6004544210151561039c576000935061051c565b6000809054906101000a900473ffffffffffffffffffffffffffffffffffffffff1673ffffffffffffffffffffffffffffffffffffffff1663b3aefb75876000604051602001526040518263ffffffff167c0100000000000000000000000000000000000000000000000000000000028152600401808273ffffffffffffffffffffffffffffffffffffffff1673ffffffffffffffffffffffffffffffffffffffff168152602001915050602060405180830381600087803b151561046057600080fd5b6102c65a03f1151561047157600080fd5b505050604051805190509250600083141561048f576000935061051c565b8291506003544211156104b4576104b1600554846106c690919063ffffffff16565b91505b610506600160008873ffffffffffffffffffffffffffffffffffffffff1673ffffffffffffffffffffffffffffffffffffffff16815260200190815260200160002054836106f990919063ffffffff16565b9050848111156105185784935061051c565b8093505b50505092915050565b60008060008060009054906101000a900473ffffffffffffffffffffffffffffffffffffffff1673ffffffffffffffffffffffffffffffffffffffff1663b3aefb75856000604051602001526040518263ffffffff167c0100000000000000000000000000000000000000000000000000000000028152600401808273ffffffffffffffffffffffffffffffffffffffff1673ffffffffffffffffffffffffffffffffffffffff168152602001915050602060405180830381600087803b15156105ee57600080fd5b6102c65a03f115156105ff57600080fd5b5050506040518051905091508190506003544211156106305761062d600554836106c690919063ffffffff16565b90505b8092505050919050565b6000600254421015905090565b60055481565b60035481565b60006004544211905090565b60016020528060005260406000206000915090505481565b6000600160008373ffffffffffffffffffffffffffffffffffffffff1673ffffffffffffffffffffffffffffffffffffffff168152602001908152602001600020549050919050565b60045481565b600080828402905060008414806106e757508284828115156106e457fe5b04145b15156106ef57fe5b8091505092915050565b600082821115151561070757fe5b8183039050929150505600a165627a7a72305820e0895b45a5e9d93b6645ec8bbb707a1a7149821ff777da1b38949896b152c3dc0029",
  "source": "pragma solidity ^0.4.0;\n\nimport './zeppelin/ownership/Ownable.sol';\nimport './ElecWhitelist.sol';\nimport './zeppelin/math/SafeMath.sol';\n\ncontract ElecApprover {\n    ElecWhitelist public list;\n    mapping(address=>uint)    public participated;\n\n    uint                      public saleStartTime;\n    uint                      public firstRoundTime;\n    uint                      public saleEndTime;\n    uint                      public xtime = 5;\n\n    using SafeMath for uint;\n\n\n    function ElecApprover( ElecWhitelist _whitelistContract,\n    uint                      _saleStartTime,\n    uint                      _firstRoundTime,\n    uint                      _saleEndTime ) public {\n        list = _whitelistContract;\n        saleStartTime = _saleStartTime;\n        firstRoundTime = _firstRoundTime;\n        saleEndTime = _saleEndTime;\n\n        require( list != ElecWhitelist(0x0) );\n        require( saleStartTime < firstRoundTime );\n        require(  firstRoundTime < saleEndTime );\n    }\n\n    // this is a seperate function so user could query it before crowdsale starts\n    function contributorCap( address contributor ) public constant returns(uint) {\n        uint  cap= list.getCap( contributor );\n        uint higherCap = cap;\n\n        if ( now > firstRoundTime ) {\n            higherCap = cap.mul(xtime);\n        }\n        return higherCap;\n    }\n\n\n    function eligible( address contributor, uint amountInWei ) public constant returns(uint) {\n        if( now < saleStartTime ) return 0;\n        if( now >= saleEndTime ) return 0;\n\n        uint cap = list.getCap( contributor );\n\n        if( cap == 0 ) return 0;\n\n        uint higherCap = cap;\n        if ( now > firstRoundTime ) {\n            higherCap = cap.mul(xtime);\n        }\n\n        uint remainedCap = higherCap.sub(participated[ contributor ]);\n        if( remainedCap > amountInWei ) return amountInWei;\n              else return remainedCap;\n\n    }\n\n    function eligibleTestAndIncrement( address contributor, uint amountInWei ) internal returns(uint) {\n        uint result = eligible( contributor, amountInWei );\n        if ( result > 0) {\n            participated[contributor] = participated[contributor].add( result );\n        }\n        return result;\n    }\n\n\n    function contributedCap(address _contributor) public constant returns(uint) {\n        return participated[_contributor];\n    }\n\n    function saleEnded() public constant returns(bool) {\n        return now > saleEndTime;\n    }\n\n    function saleStarted() public constant returns(bool) {\n        return now >= saleStartTime;\n    }\n}\n",
  "sourcePath": "/Users/tuongbui/Storage/Electrify/Smart-Contracts/contracts/ElecApprover.sol",
  "compiler": {
    "name": "solc",
    "version": "0.4.18+commit.9cf6e910.Emscripten.clang"
  },
  "schemaVersion": "1.0.1",
  "updatedAt": "2018-01-29T03:12:56.303Z"
}