{
  "contractName": "ElecWhitelist",
  "abi": [
    {
      "constant": false,
      "inputs": [
        {
          "name": "_user",
          "type": "address"
        },
        {
          "name": "_cap",
          "type": "uint256"
        }
      ],
      "name": "listAddress",
      "outputs": [],
      "payable": false,
      "stateMutability": "nonpayable",
      "type": "function"
    },
    {
      "constant": false,
      "inputs": [],
      "name": "destroy",
      "outputs": [],
      "payable": false,
      "stateMutability": "nonpayable",
      "type": "function"
    },
    {
      "constant": true,
      "inputs": [],
      "name": "owner",
      "outputs": [
        {
          "name": "",
          "type": "address"
        }
      ],
      "payable": false,
      "stateMutability": "view",
      "type": "function"
    },
    {
      "constant": false,
      "inputs": [
        {
          "name": "_users",
          "type": "address[]"
        },
        {
          "name": "_cap",
          "type": "uint256[]"
        }
      ],
      "name": "listAddresses",
      "outputs": [],
      "payable": false,
      "stateMutability": "nonpayable",
      "type": "function"
    },
    {
      "constant": true,
      "inputs": [
        {
          "name": "_user",
          "type": "address"
        }
      ],
      "name": "getCap",
      "outputs": [
        {
          "name": "",
          "type": "uint256"
        }
      ],
      "payable": false,
      "stateMutability": "view",
      "type": "function"
    },
    {
      "constant": false,
      "inputs": [
        {
          "name": "_cap",
          "type": "uint256"
        }
      ],
      "name": "setUsersCap",
      "outputs": [],
      "payable": false,
      "stateMutability": "nonpayable",
      "type": "function"
    },
    {
      "constant": true,
      "inputs": [],
      "name": "communityusersCap",
      "outputs": [
        {
          "name": "",
          "type": "uint256"
        }
      ],
      "payable": false,
      "stateMutability": "view",
      "type": "function"
    },
    {
      "constant": false,
      "inputs": [
        {
          "name": "newOwner",
          "type": "address"
        }
      ],
      "name": "transferOwnership",
      "outputs": [],
      "payable": false,
      "stateMutability": "nonpayable",
      "type": "function"
    },
    {
      "constant": true,
      "inputs": [
        {
          "name": "",
          "type": "address"
        }
      ],
      "name": "addressCap",
      "outputs": [
        {
          "name": "",
          "type": "uint256"
        }
      ],
      "payable": false,
      "stateMutability": "view",
      "type": "function"
    },
    {
      "inputs": [],
      "payable": false,
      "stateMutability": "nonpayable",
      "type": "constructor"
    },
    {
      "anonymous": false,
      "inputs": [
        {
          "indexed": false,
          "name": "_user",
          "type": "address"
        },
        {
          "indexed": false,
          "name": "_cap",
          "type": "uint256"
        },
        {
          "indexed": false,
          "name": "_time",
          "type": "uint256"
        }
      ],
      "name": "ListAddress",
      "type": "event"
    }
  ],
  "bytecode": "0x60606040526007600155341561001457600080fd5b336000806101000a81548173ffffffffffffffffffffffffffffffffffffffff021916908373ffffffffffffffffffffffffffffffffffffffff16021790555061077e806100636000396000f300606060405260043610610099576000357c0100000000000000000000000000000000000000000000000000000000900463ffffffff16806347d3def91461009e57806383197ef0146100e05780638da5cb5b146100f5578063af7b2eb71461014a578063b3aefb75146101e4578063d5537c0d14610231578063d74543f014610254578063f2fde38b1461027d578063fc87c766146102b6575b600080fd5b34156100a957600080fd5b6100de600480803573ffffffffffffffffffffffffffffffffffffffff16906020019091908035906020019091905050610303565b005b34156100eb57600080fd5b6100f3610419565b005b341561010057600080fd5b6101086104ae565b604051808273ffffffffffffffffffffffffffffffffffffffff1673ffffffffffffffffffffffffffffffffffffffff16815260200191505060405180910390f35b341561015557600080fd5b6101e2600480803590602001908201803590602001908080602002602001604051908101604052809392919081815260200183836020028082843782019150505050505091908035906020019082018035906020019080806020026020016040519081016040528093929190818152602001838360200280828437820191505050505050919050506104d3565b005b34156101ef57600080fd5b61021b600480803573ffffffffffffffffffffffffffffffffffffffff16906020019091905050610598565b6040518082815260200191505060405180910390f35b341561023c57600080fd5b61025260048080359060200190919050506105fa565b005b341561025f57600080fd5b61026761065f565b6040518082815260200191505060405180910390f35b341561028857600080fd5b6102b4600480803573ffffffffffffffffffffffffffffffffffffffff16906020019091905050610665565b005b34156102c157600080fd5b6102ed600480803573ffffffffffffffffffffffffffffffffffffffff1690602001909190505061073a565b6040518082815260200191505060405180910390f35b6000809054906101000a900473ffffffffffffffffffffffffffffffffffffffff1673ffffffffffffffffffffffffffffffffffffffff163373ffffffffffffffffffffffffffffffffffffffff1614151561035e57600080fd5b80600260008473ffffffffffffffffffffffffffffffffffffffff1673ffffffffffffffffffffffffffffffffffffffff168152602001908152602001600020819055507f050a17b796524934d80b5e8a2a3ed1462eb1964cfbd6ad62be43290b16a8023d828242604051808473ffffffffffffffffffffffffffffffffffffffff1673ffffffffffffffffffffffffffffffffffffffff168152602001838152602001828152602001935050505060405180910390a15050565b6000809054906101000a900473ffffffffffffffffffffffffffffffffffffffff1673ffffffffffffffffffffffffffffffffffffffff163373ffffffffffffffffffffffffffffffffffffffff1614151561047457600080fd5b6000809054906101000a900473ffffffffffffffffffffffffffffffffffffffff1673ffffffffffffffffffffffffffffffffffffffff16ff5b6000809054906101000a900473ffffffffffffffffffffffffffffffffffffffff1681565b60008060009054906101000a900473ffffffffffffffffffffffffffffffffffffffff1673ffffffffffffffffffffffffffffffffffffffff163373ffffffffffffffffffffffffffffffffffffffff1614151561053057600080fd5b8151835114151561054057600080fd5b600090505b825181101561059357610586838281518110151561055f57fe5b90602001906020020151838381518110151561057757fe5b90602001906020020151610303565b8080600101915050610545565b505050565b600080600260008473ffffffffffffffffffffffffffffffffffffffff1673ffffffffffffffffffffffffffffffffffffffff16815260200190815260200160002054905060018114156105f05760015491506105f4565b8091505b50919050565b6000809054906101000a900473ffffffffffffffffffffffffffffffffffffffff1673ffffffffffffffffffffffffffffffffffffffff163373ffffffffffffffffffffffffffffffffffffffff1614151561065557600080fd5b8060018190555050565b60015481565b6000809054906101000a900473ffffffffffffffffffffffffffffffffffffffff1673ffffffffffffffffffffffffffffffffffffffff163373ffffffffffffffffffffffffffffffffffffffff161415156106c057600080fd5b600073ffffffffffffffffffffffffffffffffffffffff168173ffffffffffffffffffffffffffffffffffffffff1614151561073757806000806101000a81548173ffffffffffffffffffffffffffffffffffffffff021916908373ffffffffffffffffffffffffffffffffffffffff1602179055505b50565b600260205280600052604060002060009150905054815600a165627a7a723058202bbba941bfe22f4d95aec01b1560cb21b097fec9b82a63ef21f9b23bd65835630029",
  "source": "pragma solidity ^0.4.0;\n\nimport './zeppelin/ownership/Ownable.sol';\n\ncontract ElecWhitelist is Ownable {\n    // cap is in wei. The value of 7 is just a stub.\n    // after kyc registration ends, we change it to the actual value with setsersCap\n    uint public communityusersCap = 7;\n    mapping(address=>uint) public addressCap;\n\n    function ElecWhitelist() public {}\n\n    event ListAddress( address _user, uint _cap, uint _time );\n\n    // Owner can remove by setting cap = 0.\n    // Onwer can also change it at any time\n    function listAddress( address _user, uint _cap ) public onlyOwner {\n        addressCap[_user] = _cap;\n        ListAddress( _user, _cap, now );\n    }\n\n    // an optimization in case of network congestion\n    function listAddresses( address[] _users, uint[] _cap ) public onlyOwner {\n        require(_users.length == _cap.length );\n        for( uint i = 0 ; i < _users.length ; i++ ) {\n            listAddress( _users[i], _cap[i] );\n        }\n    }\n\n    function setUsersCap( uint _cap ) public  onlyOwner {\n        communityusersCap = _cap;\n    }\n\n    function getCap( address _user ) public constant returns(uint) {\n        uint cap = addressCap[_user];\n        if( cap == 1 ) return communityusersCap;\n        else return cap;\n    }\n\n    function destroy() public onlyOwner {\n        selfdestruct(owner);\n    }\n}\n",
  "sourcePath": "/Users/tuongbui/Storage/Electrify/Smart-Contracts/contracts/ElecWhitelist.sol",
  "compiler": {
    "name": "solc",
    "version": "0.4.18+commit.9cf6e910.Emscripten.clang"
  },
  "schemaVersion": "1.0.1",
  "updatedAt": "2018-02-01T02:59:37.207Z"
}